{
  "contractName": "RentalAgreement",
  "abi": [
    {
      "inputs": [
        {
          "internalType": "string",
          "name": "_landlordName",
          "type": "string"
        },
        {
          "internalType": "uint256",
          "name": "_landlordNumber",
          "type": "uint256"
        },
        {
          "internalType": "string",
          "name": "_landlordAdhaarId",
          "type": "string"
        },
        {
          "internalType": "uint256",
          "name": "_landlordBalance",
          "type": "uint256"
        },
        {
          "internalType": "string",
          "name": "_propertyType",
          "type": "string"
        },
        {
          "internalType": "string",
          "name": "_propertyId",
          "type": "string"
        },
        {
          "internalType": "string",
          "name": "_propertyArea",
          "type": "string"
        },
        {
          "internalType": "string",
          "name": "_landlordAddress",
          "type": "string"
        },
        {
          "internalType": "bool",
          "name": "_availableforRent",
          "type": "bool"
        },
        {
          "internalType": "uint256",
          "name": "_rentAmount",
          "type": "uint256"
        },
        {
          "internalType": "uint256",
          "name": "_depositeAmount",
          "type": "uint256"
        }
      ],
      "name": "addLandlord",
      "outputs": [],
      "stateMutability": "nonpayable",
      "type": "function"
    },
    {
      "inputs": [
        {
          "internalType": "string",
          "name": "_tenantName",
          "type": "string"
        },
        {
          "internalType": "uint256",
          "name": "_tenantNumber",
          "type": "uint256"
        },
        {
          "internalType": "string",
          "name": "_tenantAdhaarId",
          "type": "string"
        },
        {
          "internalType": "uint256",
          "name": "_tenantBalance",
          "type": "uint256"
        },
        {
          "internalType": "string",
          "name": "_tenantCity",
          "type": "string"
        }
      ],
      "name": "addTenant",
      "outputs": [],
      "stateMutability": "nonpayable",
      "type": "function"
    },
    {
      "inputs": [
        {
          "internalType": "string",
          "name": "_propertyId",
          "type": "string"
        }
      ],
      "name": "getLandlord",
      "outputs": [
        {
          "internalType": "string",
          "name": "",
          "type": "string"
        },
        {
          "internalType": "string",
          "name": "",
          "type": "string"
        },
        {
          "internalType": "uint256",
          "name": "",
          "type": "uint256"
        },
        {
          "internalType": "string",
          "name": "",
          "type": "string"
        },
        {
          "internalType": "uint256",
          "name": "",
          "type": "uint256"
        }
      ],
      "stateMutability": "view",
      "type": "function",
      "constant": true
    },
    {
      "inputs": [
        {
          "internalType": "string",
          "name": "_propertyId",
          "type": "string"
        }
      ],
      "name": "getproperty",
      "outputs": [
        {
          "internalType": "string",
          "name": "",
          "type": "string"
        },
        {
          "internalType": "uint256",
          "name": "",
          "type": "uint256"
        },
        {
          "internalType": "string",
          "name": "",
          "type": "string"
        },
        {
          "internalType": "string",
          "name": "",
          "type": "string"
        },
        {
          "internalType": "string",
          "name": "",
          "type": "string"
        },
        {
          "internalType": "uint256",
          "name": "",
          "type": "uint256"
        },
        {
          "internalType": "uint256",
          "name": "",
          "type": "uint256"
        }
      ],
      "stateMutability": "view",
      "type": "function",
      "constant": true
    },
    {
      "inputs": [
        {
          "internalType": "string",
          "name": "_tenantAdhaarId",
          "type": "string"
        }
      ],
      "name": "getTenant",
      "outputs": [
        {
          "internalType": "string",
          "name": "",
          "type": "string"
        },
        {
          "internalType": "uint256",
          "name": "",
          "type": "uint256"
        },
        {
          "internalType": "string",
          "name": "",
          "type": "string"
        },
        {
          "internalType": "uint256",
          "name": "",
          "type": "uint256"
        },
        {
          "internalType": "string",
          "name": "",
          "type": "string"
        }
      ],
      "stateMutability": "view",
      "type": "function",
      "constant": true
    },
    {
      "inputs": [
        {
          "internalType": "string",
          "name": "_landlordAdhaarId",
          "type": "string"
        },
        {
          "internalType": "string",
          "name": "_propertyId",
          "type": "string"
        }
      ],
      "name": "validateLandlord",
      "outputs": [
        {
          "internalType": "bool",
          "name": "",
          "type": "bool"
        }
      ],
      "stateMutability": "view",
      "type": "function",
      "constant": true
    },
    {
      "inputs": [
        {
          "internalType": "string",
          "name": "_propertyId",
          "type": "string"
        }
      ],
      "name": "validateProperty",
      "outputs": [
        {
          "internalType": "bool",
          "name": "",
          "type": "bool"
        }
      ],
      "stateMutability": "view",
      "type": "function",
      "constant": true
    },
    {
      "inputs": [
        {
          "internalType": "string",
          "name": "_tenantAdhaarId",
          "type": "string"
        }
      ],
      "name": "validateTenant",
      "outputs": [
        {
          "internalType": "bool",
          "name": "",
          "type": "bool"
        }
      ],
      "stateMutability": "view",
      "type": "function",
      "constant": true
    },
    {
      "inputs": [],
      "name": "getPropertyId",
      "outputs": [
        {
          "internalType": "string[]",
          "name": "",
          "type": "string[]"
        }
      ],
      "stateMutability": "view",
      "type": "function",
      "constant": true
    },
    {
      "inputs": [],
      "name": "getLandlordId",
      "outputs": [
        {
          "internalType": "string[]",
          "name": "",
          "type": "string[]"
        }
      ],
      "stateMutability": "view",
      "type": "function",
      "constant": true
    },
    {
      "inputs": [],
      "name": "gettenantId",
      "outputs": [
        {
          "internalType": "string[]",
          "name": "",
          "type": "string[]"
        }
      ],
      "stateMutability": "view",
      "type": "function",
      "constant": true
    },
    {
      "inputs": [
        {
          "internalType": "string",
          "name": "_propertyId",
          "type": "string"
        },
        {
          "internalType": "string",
          "name": "_tenantAdhaarId",
          "type": "string"
        }
      ],
      "name": "rentproperty",
      "outputs": [],
      "stateMutability": "nonpayable",
      "type": "function"
    },
    {
      "inputs": [
        {
          "internalType": "string",
          "name": "_propertyId",
          "type": "string"
        },
        {
          "internalType": "string",
          "name": "_tenantAdhaarId",
          "type": "string"
        }
      ],
      "name": "payRent",
      "outputs": [],
      "stateMutability": "nonpayable",
      "type": "function"
    },
    {
      "inputs": [
        {
          "internalType": "string",
          "name": "_propertyId",
          "type": "string"
        },
        {
          "internalType": "string",
          "name": "_tenantAdhaarId",
          "type": "string"
        }
      ],
      "name": "vacantProperty",
      "outputs": [],
      "stateMutability": "nonpayable",
      "type": "function"
    }
  ],
  "bytecode": "0x608060405234801561001057600080fd5b506127c6806100206000396000f3fe608060405234801561001057600080fd5b50600436106100ea5760003560e01c80639ec6b7321161008c578063d3f4f96a11610066578063d3f4f96a14610253578063e52eead414610287578063e6672199146102b7578063ee08b623146102e7576100ea565b80639ec6b732146101e3578063a8f33a0714610219578063b3470ba014610237576100ea565b80634d8688a9116100c85780634d8688a9146101455780635efff3851461016157806362da78591461019557806389eff133146101c5576100ea565b806306ef89f0146100ef57806333d9eeba1461010b5780634a5f241214610129575b600080fd5b61010960048036038101906101049190611ae2565b610303565b005b610113610431565b6040516101209190611ca4565b60405180910390f35b610143600480360381019061013e9190611ae2565b61050a565b005b61015f600480360381019061015a9190611ae2565b6105ff565b005b61017b60048036038101906101769190611cc6565b6106f4565b60405161018c959493929190611d72565b60405180910390f35b6101af60048036038101906101aa9190611ae2565b61095c565b6040516101bc9190611df5565b60405180910390f35b6101cd6109e6565b6040516101da9190611ca4565b60405180910390f35b6101fd60048036038101906101f89190611cc6565b610abf565b6040516102109796959493929190611e10565b60405180910390f35b610221610dfe565b60405161022e9190611ca4565b60405180910390f35b610251600480360381019061024c9190611ec7565b610ed7565b005b61026d60048036038101906102689190611cc6565b611081565b60405161027e959493929190611f96565b60405180910390f35b6102a1600480360381019061029c9190611cc6565b6112e7565b6040516102ae9190611df5565b60405180910390f35b6102d160048036038101906102cc9190611cc6565b611370565b6040516102de9190611df5565b60405180910390f35b61030160048036038101906102fc919061202a565b6113f9565b005b600115156001836040516103179190612202565b908152602001604051809103902060090160009054906101000a900460ff1615151461034257600080fd5b6001826040516103529190612202565b9081526020016040518091039020600801546000836040516103749190612202565b908152602001604051809103902060050160008282546103949190612248565b925050819055506001826040516103ab9190612202565b9081526020016040518091039020600801546002826040516103cd9190612202565b908152602001604051809103902060030160008282546103ed919061229e565b92505081905550600180836040516104059190612202565b908152602001604051809103902060090160016101000a81548160ff0219169083151502179055505050565b60606003805480602002602001604051908101604052809291908181526020016000905b8282101561050157838290600052602060002001805461047490612301565b80601f01602080910402602001604051908101604052809291908181526020018280546104a090612301565b80156104ed5780601f106104c2576101008083540402835291602001916104ed565b820191906000526020600020905b8154815290600101906020018083116104d057829003601f168201915b505050505081526020019060010190610455565b50505050905090565b6001151560018360405161051e9190612202565b908152602001604051809103902060090160019054906101000a900460ff1615151461054957600080fd5b6001826040516105599190612202565b90815260200160405180910390206007015460008360405161057b9190612202565b9081526020016040518091039020600501600082825461059b9190612248565b925050819055506001826040516105b29190612202565b9081526020016040518091039020600701546002826040516105d49190612202565b908152602001604051809103902060030160008282546105f4919061229e565b925050819055505050565b600115156001836040516106139190612202565b908152602001604051809103902060090160009054906101000a900460ff1615151461063e57600080fd5b60018260405161064e9190612202565b9081526020016040518091039020600801546000836040516106709190612202565b90815260200160405180910390206005016000828254610690919061229e565b925050819055506001826040516106a79190612202565b9081526020016040518091039020600801546002826040516106c99190612202565b908152602001604051809103902060030160008282546106e99190612248565b925050819055505050565b6060600060606000606060028660405161070e9190612202565b908152602001604051809103902060000160028760405161072f9190612202565b9081526020016040518091039020600101546002886040516107519190612202565b90815260200160405180910390206002016002896040516107729190612202565b90815260200160405180910390206003015460028a6040516107949190612202565b90815260200160405180910390206004018480546107b190612301565b80601f01602080910402602001604051908101604052809291908181526020018280546107dd90612301565b801561082a5780601f106107ff5761010080835404028352916020019161082a565b820191906000526020600020905b81548152906001019060200180831161080d57829003601f168201915b5050505050945082805461083d90612301565b80601f016020809104026020016040519081016040528092919081815260200182805461086990612301565b80156108b65780601f1061088b576101008083540402835291602001916108b6565b820191906000526020600020905b81548152906001019060200180831161089957829003601f168201915b505050505092508080546108c990612301565b80601f01602080910402602001604051908101604052809291908181526020018280546108f590612301565b80156109425780601f1061091757610100808354040283529160200191610942565b820191906000526020600020905b81548152906001019060200180831161092557829003601f168201915b505050505090509450945094509450945091939590929450565b60008260405160200161096f9190612202565b604051602081830303815290604052805190602001206000836040516109959190612202565b90815260200160405180910390206001016040516020016109b691906123c7565b6040516020818303038152906040528051906020012014156109db57600190506109e0565b600090505b92915050565b60606004805480602002602001604051908101604052809291908181526020016000905b82821015610ab6578382906000526020600020018054610a2990612301565b80601f0160208091040260200160405190810160405280929190818152602001828054610a5590612301565b8015610aa25780601f10610a7757610100808354040283529160200191610aa2565b820191906000526020600020905b815481529060010190602001808311610a8557829003601f168201915b505050505081526020019060010190610a0a565b50505050905090565b606060006060806060600080600088604051610adb9190612202565b9081526020016040518091039020600001600089604051610afc9190612202565b90815260200160405180910390206002015460018a604051610b1e9190612202565b908152602001604051809103902060050160018b604051610b3f9190612202565b908152602001604051809103902060030160018c604051610b609190612202565b908152602001604051809103902060060160018d604051610b819190612202565b90815260200160405180910390206007015460018e604051610ba39190612202565b908152602001604051809103902060080154868054610bc190612301565b80601f0160208091040260200160405190810160405280929190818152602001828054610bed90612301565b8015610c3a5780601f10610c0f57610100808354040283529160200191610c3a565b820191906000526020600020905b815481529060010190602001808311610c1d57829003601f168201915b50505050509650848054610c4d90612301565b80601f0160208091040260200160405190810160405280929190818152602001828054610c7990612301565b8015610cc65780601f10610c9b57610100808354040283529160200191610cc6565b820191906000526020600020905b815481529060010190602001808311610ca957829003601f168201915b50505050509450838054610cd990612301565b80601f0160208091040260200160405190810160405280929190818152602001828054610d0590612301565b8015610d525780601f10610d2757610100808354040283529160200191610d52565b820191906000526020600020905b815481529060010190602001808311610d3557829003601f168201915b50505050509350828054610d6590612301565b80601f0160208091040260200160405190810160405280929190818152602001828054610d9190612301565b8015610dde5780601f10610db357610100808354040283529160200191610dde565b820191906000526020600020905b815481529060010190602001808311610dc157829003601f168201915b505050505092509650965096509650965096509650919395979092949650565b60606005805480602002602001604051908101604052809291908181526020016000905b82821015610ece578382906000526020600020018054610e4190612301565b80601f0160208091040260200160405190810160405280929190818152602001828054610e6d90612301565b8015610eba5780601f10610e8f57610100808354040283529160200191610eba565b820191906000526020600020905b815481529060010190602001808311610e9d57829003601f168201915b505050505081526020019060010190610e22565b50505050905090565b82604051602001610ee89190612202565b60405160208183030381529060405280519060200120600284604051610f0e9190612202565b9081526020016040518091039020600201604051602001610f2f91906123c7565b604051602081830303815290604052805190602001201415610f5057600080fd5b84600284604051610f619190612202565b90815260200160405180910390206000019080519060200190610f859291906118e5565b5083600284604051610f979190612202565b90815260200160405180910390206001018190555082600284604051610fbd9190612202565b90815260200160405180910390206002019080519060200190610fe19291906118e5565b5081600284604051610ff39190612202565b908152602001604051809103902060030181905550806002846040516110199190612202565b9081526020016040518091039020600401908051906020019061103d9291906118e5565b506005839080600181540180825580915050600190039060005260206000200160009091909190915090805190602001906110799291906118e5565b505050505050565b60608060006060600080866040516110999190612202565b90815260200160405180910390206000016000876040516110ba9190612202565b90815260200160405180910390206001016000886040516110db9190612202565b9081526020016040518091039020600201546000896040516110fd9190612202565b908152602001604051809103902060030160008a60405161111e9190612202565b90815260200160405180910390206005015484805461113c90612301565b80601f016020809104026020016040519081016040528092919081815260200182805461116890612301565b80156111b55780601f1061118a576101008083540402835291602001916111b5565b820191906000526020600020905b81548152906001019060200180831161119857829003601f168201915b505050505094508380546111c890612301565b80601f01602080910402602001604051908101604052809291908181526020018280546111f490612301565b80156112415780601f1061121657610100808354040283529160200191611241565b820191906000526020600020905b81548152906001019060200180831161122457829003601f168201915b5050505050935081805461125490612301565b80601f016020809104026020016040519081016040528092919081815260200182805461128090612301565b80156112cd5780601f106112a2576101008083540402835291602001916112cd565b820191906000526020600020905b8154815290600101906020018083116112b057829003601f168201915b505050505091509450945094509450945091939590929450565b6000816040516020016112fa9190612202565b604051602081830303815290604052805190602001206002836040516113209190612202565b908152602001604051809103902060020160405160200161134191906123c7565b604051602081830303815290604052805190602001201415611366576001905061136b565b600090505b919050565b6000816040516020016113839190612202565b604051602081830303815290604052805190602001206001836040516113a99190612202565b90815260200160405180910390206005016040516020016113ca91906123c7565b6040516020818303038152906040528051906020012014156113ef57600190506113f4565b600090505b919050565b60008b511161143d576040517f08c379a00000000000000000000000000000000000000000000000000000000081526004016114349061242a565b60405180910390fd5b6000895111611481576040517f08c379a0000000000000000000000000000000000000000000000000000000008152600401611478906124bc565b60405180910390fd5b60008451116114c5576040517f08c379a00000000000000000000000000000000000000000000000000000000081526004016114bc90612528565b60405180910390fd5b6000865111611509576040517f08c379a0000000000000000000000000000000000000000000000000000000008152600401611500906125ba565b60405180910390fd5b6000821161154c576040517f08c379a00000000000000000000000000000000000000000000000000000000081526004016115439061264c565b60405180910390fd5b6000811161158f576040517f08c379a0000000000000000000000000000000000000000000000000000000008152600401611586906126de565b60405180910390fd5b600088116115d2576040517f08c379a00000000000000000000000000000000000000000000000000000000081526004016115c990612770565b60405180910390fd5b856040516020016115e39190612202565b604051602081830303815290604052805190602001206001876040516116099190612202565b908152602001604051809103902060050160405160200161162a91906123c7565b60405160208183030381529060405280519060200120141561164b57600080fd5b8a60008760405161165c9190612202565b908152602001604051809103902060000190805190602001906116809291906118e5565b50896000876040516116929190612202565b908152602001604051809103902060020181905550886000876040516116b89190612202565b908152602001604051809103902060010190805190602001906116dc9291906118e5565b50876000876040516116ee9190612202565b908152602001604051809103902060050181905550866001876040516117149190612202565b908152602001604051809103902060030190805190602001906117389291906118e5565b508560018760405161174a9190612202565b9081526020016040518091039020600501908051906020019061176e9291906118e5565b50846001876040516117809190612202565b908152602001604051809103902060060190805190602001906117a49291906118e5565b50836000876040516117b69190612202565b908152602001604051809103902060030190805190602001906117da9291906118e5565b50826001876040516117ec9190612202565b908152602001604051809103902060090160006101000a81548160ff021916908315150217905550816001876040516118259190612202565b9081526020016040518091039020600701819055508060018760405161184b9190612202565b90815260200160405180910390206008018190555060038690806001815401808255809150506001900390600052602060002001600090919091909150908051906020019061189b9291906118e5565b506004899080600181540180825580915050600190039060005260206000200160009091909190915090805190602001906118d79291906118e5565b505050505050505050505050565b8280546118f190612301565b90600052602060002090601f016020900481019282611913576000855561195a565b82601f1061192c57805160ff191683800117855561195a565b8280016001018555821561195a579182015b8281111561195957825182559160200191906001019061193e565b5b509050611967919061196b565b5090565b5b8082111561198457600081600090555060010161196c565b5090565b6000604051905090565b600080fd5b600080fd5b600080fd5b600080fd5b6000601f19601f8301169050919050565b7f4e487b7100000000000000000000000000000000000000000000000000000000600052604160045260246000fd5b6119ef826119a6565b810181811067ffffffffffffffff82111715611a0e57611a0d6119b7565b5b80604052505050565b6000611a21611988565b9050611a2d82826119e6565b919050565b600067ffffffffffffffff821115611a4d57611a4c6119b7565b5b611a56826119a6565b9050602081019050919050565b82818337600083830152505050565b6000611a85611a8084611a32565b611a17565b905082815260208101848484011115611aa157611aa06119a1565b5b611aac848285611a63565b509392505050565b600082601f830112611ac957611ac861199c565b5b8135611ad9848260208601611a72565b91505092915050565b60008060408385031215611af957611af8611992565b5b600083013567ffffffffffffffff811115611b1757611b16611997565b5b611b2385828601611ab4565b925050602083013567ffffffffffffffff811115611b4457611b43611997565b5b611b5085828601611ab4565b9150509250929050565b600081519050919050565b600082825260208201905092915050565b6000819050602082019050919050565b600081519050919050565b600082825260208201905092915050565b60005b83811015611bc0578082015181840152602081019050611ba5565b83811115611bcf576000848401525b50505050565b6000611be082611b86565b611bea8185611b91565b9350611bfa818560208601611ba2565b611c03816119a6565b840191505092915050565b6000611c1a8383611bd5565b905092915050565b6000602082019050919050565b6000611c3a82611b5a565b611c448185611b65565b935083602082028501611c5685611b76565b8060005b85811015611c925784840389528151611c738582611c0e565b9450611c7e83611c22565b925060208a01995050600181019050611c5a565b50829750879550505050505092915050565b60006020820190508181036000830152611cbe8184611c2f565b905092915050565b600060208284031215611cdc57611cdb611992565b5b600082013567ffffffffffffffff811115611cfa57611cf9611997565b5b611d0684828501611ab4565b91505092915050565b600082825260208201905092915050565b6000611d2b82611b86565b611d358185611d0f565b9350611d45818560208601611ba2565b611d4e816119a6565b840191505092915050565b6000819050919050565b611d6c81611d59565b82525050565b600060a0820190508181036000830152611d8c8188611d20565b9050611d9b6020830187611d63565b8181036040830152611dad8186611d20565b9050611dbc6060830185611d63565b8181036080830152611dce8184611d20565b90509695505050505050565b60008115159050919050565b611def81611dda565b82525050565b6000602082019050611e0a6000830184611de6565b92915050565b600060e0820190508181036000830152611e2a818a611d20565b9050611e396020830189611d63565b8181036040830152611e4b8188611d20565b90508181036060830152611e5f8187611d20565b90508181036080830152611e738186611d20565b9050611e8260a0830185611d63565b611e8f60c0830184611d63565b98975050505050505050565b611ea481611d59565b8114611eaf57600080fd5b50565b600081359050611ec181611e9b565b92915050565b600080600080600060a08688031215611ee357611ee2611992565b5b600086013567ffffffffffffffff811115611f0157611f00611997565b5b611f0d88828901611ab4565b9550506020611f1e88828901611eb2565b945050604086013567ffffffffffffffff811115611f3f57611f3e611997565b5b611f4b88828901611ab4565b9350506060611f5c88828901611eb2565b925050608086013567ffffffffffffffff811115611f7d57611f7c611997565b5b611f8988828901611ab4565b9150509295509295909350565b600060a0820190508181036000830152611fb08188611d20565b90508181036020830152611fc48187611d20565b9050611fd36040830186611d63565b8181036060830152611fe58185611d20565b9050611ff46080830184611d63565b9695505050505050565b61200781611dda565b811461201257600080fd5b50565b60008135905061202481611ffe565b92915050565b60008060008060008060008060008060006101608c8e0312156120505761204f611992565b5b60008c013567ffffffffffffffff81111561206e5761206d611997565b5b61207a8e828f01611ab4565b9b5050602061208b8e828f01611eb2565b9a505060408c013567ffffffffffffffff8111156120ac576120ab611997565b5b6120b88e828f01611ab4565b99505060606120c98e828f01611eb2565b98505060808c013567ffffffffffffffff8111156120ea576120e9611997565b5b6120f68e828f01611ab4565b97505060a08c013567ffffffffffffffff81111561211757612116611997565b5b6121238e828f01611ab4565b96505060c08c013567ffffffffffffffff81111561214457612143611997565b5b6121508e828f01611ab4565b95505060e08c013567ffffffffffffffff81111561217157612170611997565b5b61217d8e828f01611ab4565b94505061010061218f8e828f01612015565b9350506101206121a18e828f01611eb2565b9250506101406121b38e828f01611eb2565b9150509295989b509295989b9093969950565b600081905092915050565b60006121dc82611b86565b6121e681856121c6565b93506121f6818560208601611ba2565b80840191505092915050565b600061220e82846121d1565b915081905092915050565b7f4e487b7100000000000000000000000000000000000000000000000000000000600052601160045260246000fd5b600061225382611d59565b915061225e83611d59565b9250827fffffffffffffffffffffffffffffffffffffffffffffffffffffffffffffffff0382111561229357612292612219565b5b828201905092915050565b60006122a982611d59565b91506122b483611d59565b9250828210156122c7576122c6612219565b5b828203905092915050565b7f4e487b7100000000000000000000000000000000000000000000000000000000600052602260045260246000fd5b6000600282049050600182168061231957607f821691505b6020821081141561232d5761232c6122d2565b5b50919050565b60008190508160005260206000209050919050565b6000815461235581612301565b61235f81866121c6565b9450600182166000811461237a576001811461238b576123be565b60ff198316865281860193506123be565b61239485612333565b60005b838110156123b657815481890152600182019150602081019050612397565b838801955050505b50505092915050565b60006123d38284612348565b915081905092915050565b7f4e6f206461746120666f756e642e20456e74657220796f7572204e616d652e00600082015250565b6000612414601f83611d0f565b915061241f826123de565b602082019050919050565b6000602082019050818103600083015261244381612407565b9050919050565b7f4e6f206461746120666f756e642e20456e74657220796f75722041646861617260008201527f204e756d6265722e000000000000000000000000000000000000000000000000602082015250565b60006124a6602883611d0f565b91506124b18261244a565b604082019050919050565b600060208201905081810360008301526124d581612499565b9050919050565b7f4e6f206461746120666f756e642c20456e74657220416464726573732e000000600082015250565b6000612512601d83611d0f565b915061251d826124dc565b602082019050919050565b6000602082019050818103600083015261254181612505565b9050919050565b7f4e6f206461746120666f756e642c20456e746572207468652070726f7065727460008201527f792049642e000000000000000000000000000000000000000000000000000000602082015250565b60006125a4602583611d0f565b91506125af82612548565b604082019050919050565b600060208201905081810360008301526125d381612597565b9050919050565b7f4e6f206461746120666f756e642e20456e7465722052656e7420416d6f756e7460008201527f2e00000000000000000000000000000000000000000000000000000000000000602082015250565b6000612636602183611d0f565b9150612641826125da565b604082019050919050565b6000602082019050818103600083015261266581612629565b9050919050565b7f4e6f206461746120666f756e642e20456e746572204465706f7369746520416d60008201527f6f756e7400000000000000000000000000000000000000000000000000000000602082015250565b60006126c8602483611d0f565b91506126d38261266c565b604082019050919050565b600060208201905081810360008301526126f7816126bb565b9050919050565b7f4e6f206461746120666f756e642e20456e7465722042616c616e636520416d6f60008201527f756e740000000000000000000000000000000000000000000000000000000000602082015250565b600061275a602383611d0f565b9150612765826126fe565b604082019050919050565b600060208201905081810360008301526127898161274d565b905091905056fea2646970667358221220f64bda78699d4d50199a3d71ad45442e84be9d2afd2576739ce6b9755054a8f364736f6c634300080a0033",
  "immutableReferences": {},
  "source": "pragma solidity ^0.8.10;\r\n// SPDX-License-Identifier: MIT\r\n\r\ncontract RentalAgreement {\r\n\r\n    struct landlord\r\n//structures\r\n\r\n    {\r\n        string  landlordName;\r\n        string landlordAdhaarId;\r\n        uint landlordNumber;\r\n        string  landlordAddress;\r\n        string propertyId;\r\n        uint landlordBalance;\r\n    }\r\n\r\n\r\n    struct property\r\n    {\r\n        string landlordName;\r\n        uint landlordNumber;\r\n        string landlordAdhaarId;\r\n        string propertyType;\r\n        string propertyAddress;\r\n        string propertyId;\r\n        string propertyArea;\r\n        uint rentAmount;\r\n        uint depositeAmount;\r\n        bool availableforRent;\r\n        bool isRented ;\r\n    }\r\n\r\n    struct tenant \r\n    {\r\n        string tenantName;\r\n        uint tenantNumber;\r\n        string tenantAdhaarId;\r\n        uint tenantBalance;\r\n        string tenantCity;\r\n    \r\n    }   \r\n\r\n//Mapping\r\n\r\n     mapping (string => landlord) landlordMap;\r\n\r\n     mapping (string => property) propertyMap;\r\n\r\n\t mapping(string => tenant) tenantMap;\r\n\r\n//Initializing array\r\n\r\n    string[] propertyArray;\r\n    string[] landlordArray;\r\n\tstring[] tenantArray;\r\n\r\n//Set Functions for landlord and his Property\r\n\r\n    function addLandlord(string memory _landlordName,uint _landlordNumber,string memory _landlordAdhaarId\r\n    ,uint _landlordBalance,string memory _propertyType, string memory _propertyId, string memory _propertyArea, string memory _landlordAddress,bool _availableforRent, uint _rentAmount, uint _depositeAmount) public \r\n    {\r\n\r\n        require(bytes(_landlordName).length > 0, \"No data found. Enter your Name.\");\r\n        require(bytes(_landlordAdhaarId).length > 0, \"No data found. Enter your Adhaar Number.\");\r\n        require(bytes(_landlordAddress).length > 0, \"No data found, Enter Address.\");\r\n        require(bytes(_propertyId).length > 0, \"No data found, Enter the property Id.\");\r\n        require(uint(_rentAmount) > 0, \"No data found. Enter Rent Amount.\");\r\n        require(uint(_depositeAmount) > 0, \"No data found. Enter Deposite Amount\");\r\n        require(uint(_landlordBalance)>0,\"No data found. Enter Balance Amount\");\r\n\r\n    \r\n\r\n        require(\r\n            keccak256(abi.encodePacked((propertyMap[_propertyId].propertyId)))\r\n            !=\r\n            keccak256(abi.encodePacked(_propertyId))\r\n        );\r\n\r\n        landlordMap[_propertyId].landlordName = _landlordName;\r\n        landlordMap[_propertyId].landlordNumber = _landlordNumber;\r\n        landlordMap[_propertyId].landlordAdhaarId =_landlordAdhaarId;\r\n        landlordMap[_propertyId].landlordBalance = _landlordBalance;\r\n        propertyMap[_propertyId].propertyType = _propertyType;\r\n        propertyMap[_propertyId].propertyId = _propertyId;\r\n        propertyMap[_propertyId].propertyArea = _propertyArea;\r\n        landlordMap[_propertyId].landlordAddress = _landlordAddress;\r\n        propertyMap[_propertyId].availableforRent = _availableforRent;\r\n        propertyMap[_propertyId].rentAmount = _rentAmount;\r\n        propertyMap[_propertyId].depositeAmount = _depositeAmount;\r\n        \r\n        \r\n\r\n            \r\n\r\n        propertyArray.push(_propertyId);\r\n        landlordArray.push(_landlordAdhaarId);\r\n        \r\n    }\r\n\r\n    //Set Function for tenant\r\n\t function addTenant(string memory _tenantName, uint _tenantNumber , string memory _tenantAdhaarId, uint _tenantBalance, string memory _tenantCity) public\r\n    {\r\n        \r\n\r\n    require(\r\n            keccak256(abi.encodePacked((tenantMap[_tenantAdhaarId].tenantAdhaarId)))\r\n            !=\r\n            keccak256(abi.encodePacked(_tenantAdhaarId))\r\n        );\r\n\r\n        tenantMap[_tenantAdhaarId].tenantName = _tenantName;\r\n        tenantMap[_tenantAdhaarId].tenantNumber=_tenantNumber;\r\n        tenantMap[_tenantAdhaarId].tenantAdhaarId = _tenantAdhaarId;\r\n        tenantMap[_tenantAdhaarId].tenantBalance = _tenantBalance;\r\n        tenantMap[_tenantAdhaarId].tenantCity = _tenantCity;\r\n        tenantArray.push(_tenantAdhaarId);\r\n    }\r\n\r\n\r\n//Get Function for Landlord\r\n\r\n\r\n\r\n    function getLandlord(string memory _propertyId) view public returns (string memory, string memory,uint, string memory,uint) \r\n    {\r\n        return (\r\n           landlordMap[_propertyId].landlordName,\r\n           landlordMap[_propertyId].landlordAdhaarId,\r\n           landlordMap[_propertyId].landlordNumber,\r\n           landlordMap[_propertyId].landlordAddress,\r\n           landlordMap[_propertyId].landlordBalance\r\n           \r\n\r\n        );\r\n    }\r\n\r\n    \r\n//get function for Property\r\n     function getproperty(string memory _propertyId) view public returns (string memory ,uint ,string memory,string memory, string memory, uint, uint)\r\n    {\r\n        return (\r\n            landlordMap[_propertyId].landlordName,\r\n            landlordMap[_propertyId].landlordNumber ,\r\n            propertyMap[_propertyId].propertyId,\r\n            propertyMap[_propertyId].propertyType,\r\n           propertyMap[_propertyId].propertyArea,\r\n           propertyMap[_propertyId].rentAmount,\r\n           propertyMap[_propertyId].depositeAmount\r\n           \r\n        );\r\n    }\r\n//Get function for Tenant\r\n\t function getTenant(string memory _tenantAdhaarId) view public returns (string memory, uint ,string memory, uint, string memory)\r\n    {\r\n        return\r\n        (\r\n            tenantMap[_tenantAdhaarId].tenantName,\r\n            tenantMap[_tenantAdhaarId].tenantNumber,\r\n            tenantMap[_tenantAdhaarId].tenantAdhaarId,\r\n            tenantMap[_tenantAdhaarId].tenantBalance,\r\n            tenantMap[_tenantAdhaarId].tenantCity\r\n\r\n        );\r\n}\r\n\r\n\r\n//validate function for Landlord\r\n\r\nfunction validateLandlord (string memory _landlordAdhaarId , string memory _propertyId) view public returns(bool)\r\n   {\r\n     if (keccak256(abi.encodePacked((landlordMap[_propertyId].landlordAdhaarId))) \r\n                ==\r\n      keccak256(abi.encodePacked(_landlordAdhaarId)))\r\n     return true;\r\n     else return false;\r\n\r\n    }\r\n\r\n//validate function for Property\r\nfunction validateProperty(string memory _propertyId) view public returns(bool)\r\n    {\r\n\r\n     if (keccak256(abi.encodePacked((propertyMap[_propertyId].propertyId))) == \r\n     keccak256(abi.encodePacked(_propertyId)))\r\n     return true;\r\n     else return false;\r\n\r\n    }\r\n\r\n//validate function for Tenant\r\nfunction validateTenant(string memory _tenantAdhaarId) view public returns(bool)\r\n    {\r\n\r\n     if (keccak256(abi.encodePacked((tenantMap[_tenantAdhaarId].tenantAdhaarId))) == keccak256(abi.encodePacked(_tenantAdhaarId)))\r\n     return true;\r\n     else return false;\r\n\r\n    }\r\n\r\n function getPropertyId() view public returns(string[] memory)\r\n    {\r\n            return propertyArray;\r\n    }\r\n\r\n    function getLandlordId() view public returns (string[] memory)\r\n    {\r\n        return landlordArray;\r\n    }\r\n\r\n    function gettenantId() view public returns (string[] memory) \r\n    {\r\n        return tenantArray;\r\n    }\r\n    function rentproperty(string memory _propertyId , string memory _tenantAdhaarId)  public\r\n    {\r\n        require( propertyMap[_propertyId].availableforRent == true) ;//availiablefor sell or not\r\n        \r\n        landlordMap[_propertyId].landlordBalance +=   propertyMap[_propertyId].depositeAmount ;\r\n        tenantMap[_tenantAdhaarId].tenantBalance -=  propertyMap[_propertyId].depositeAmount ;\r\n        propertyMap[_propertyId].isRented = true;\r\n\r\n        \r\n    }\r\n    function payRent(string memory _propertyId , string memory _tenantAdhaarId)  public\r\n    {\r\n        require( propertyMap[_propertyId].isRented == true) ;//availiablefor sell or not\r\n        landlordMap[_propertyId].landlordBalance +=   propertyMap[_propertyId].rentAmount;\r\n        tenantMap[_tenantAdhaarId].tenantBalance -=  propertyMap[_propertyId].rentAmount;\r\n        \r\n    }\r\n     function vacantProperty(string memory _propertyId , string memory _tenantAdhaarId)  public\r\n    {\r\n        require( propertyMap[_propertyId].availableforRent == true) ;//availiablefor sell or not\r\n        \r\n        landlordMap[_propertyId].landlordBalance -=   propertyMap[_propertyId].depositeAmount;\r\n        tenantMap[_tenantAdhaarId].tenantBalance +=  propertyMap[_propertyId].depositeAmount;\r\n        \r\n    }\r\n\r\n}\r\n",
  "sourcePath": "G:\\Projects\\Rental Agreement - MiniProject\\Rental Agreement\\contracts\\RentalAgreement.sol",
  "compiler": {
    "name": "solc",
    "version": "0.8.10+commit.fc410830.Emscripten.clang"
  },
  "schemaVersion": "3.4.7",
  "updatedAt": "2022-07-14T02:13:31.919Z",
  "networkType": "ethereum",
  "devdoc": {
    "kind": "dev",
    "methods": {},
    "version": 1
  },
  "userdoc": {
    "kind": "user",
    "methods": {},
    "version": 1
  }
}